{
  "abi": [
    {
      "inputs": [
        {
          "internalType": "address",
          "name": "",
          "type": "address"
        },
        {
          "internalType": "address",
          "name": "",
          "type": "address"
        },
        {
          "internalType": "uint256[]",
          "name": "",
          "type": "uint256[]"
        },
        {
          "internalType": "bytes",
          "name": "",
          "type": "bytes"
        }
      ],
      "name": "onERC721BatchReceived",
      "outputs": [
        {
          "internalType": "bytes4",
          "name": "",
          "type": "bytes4"
        }
      ],
      "stateMutability": "nonpayable",
      "type": "function"
    },
    {
      "inputs": [
        {
          "internalType": "address",
          "name": "",
          "type": "address"
        },
        {
          "internalType": "address",
          "name": "",
          "type": "address"
        },
        {
          "internalType": "uint256",
          "name": "",
          "type": "uint256"
        },
        {
          "internalType": "bytes",
          "name": "",
          "type": "bytes"
        }
      ],
      "name": "onERC721Received",
      "outputs": [
        {
          "internalType": "bytes4",
          "name": "",
          "type": "bytes4"
        }
      ],
      "stateMutability": "nonpayable",
      "type": "function"
    }
  ],
  "bytecode": {
    "object": "0x608060405234801561001057600080fd5b50610263806100206000396000f3fe608060405234801561001057600080fd5b50600436106100365760003560e01c8063150b7a021461003b5780634b808c4614610077575b600080fd5b61005a6100493660046100fc565b630a85bd0160e11b95945050505050565b6040516001600160e01b0319909116815260200160405180910390f35b61005a61008536600461016b565b63aabbccdd60e01b9695505050505050565b80356001600160a01b03811681146100ae57600080fd5b919050565b60008083601f8401126100c557600080fd5b50813567ffffffffffffffff8111156100dd57600080fd5b6020830191508360208285010111156100f557600080fd5b9250929050565b60008060008060006080868803121561011457600080fd5b61011d86610097565b945061012b60208701610097565b935060408601359250606086013567ffffffffffffffff81111561014e57600080fd5b61015a888289016100b3565b969995985093965092949392505050565b6000806000806000806080878903121561018457600080fd5b61018d87610097565b955061019b60208801610097565b9450604087013567ffffffffffffffff808211156101b857600080fd5b818901915089601f8301126101cc57600080fd5b8135818111156101db57600080fd5b8a60208260051b85010111156101f057600080fd5b60208301965080955050606089013591508082111561020e57600080fd5b5061021b89828a016100b3565b979a969950949750929593949250505056fea26469706673582212207eeb17b97e1ee478620914a6dce4bf94ddb29930e0176fcabf39a901d19a5a5a64736f6c634300080f0033",
    "linkReferences": {}
  },
  "methodIdentifiers": {
    "onERC721BatchReceived(address,address,uint256[],bytes)": "4b808c46",
    "onERC721Received(address,address,uint256,bytes)": "150b7a02"
  },
  "id": 8
}