{
  "abi": [
    {
      "inputs": [
        {
          "internalType": "string",
          "name": "uri_",
          "type": "string"
        }
      ],
      "stateMutability": "nonpayable",
      "type": "constructor"
    },
    {
      "anonymous": false,
      "inputs": [
        {
          "indexed": true,
          "internalType": "address",
          "name": "account",
          "type": "address"
        },
        {
          "indexed": true,
          "internalType": "address",
          "name": "operator",
          "type": "address"
        },
        {
          "indexed": false,
          "internalType": "bool",
          "name": "approved",
          "type": "bool"
        }
      ],
      "name": "ApprovalForAll",
      "type": "event"
    },
    {
      "anonymous": false,
      "inputs": [
        {
          "indexed": true,
          "internalType": "address",
          "name": "operator",
          "type": "address"
        },
        {
          "indexed": true,
          "internalType": "address",
          "name": "from",
          "type": "address"
        },
        {
          "indexed": true,
          "internalType": "address",
          "name": "to",
          "type": "address"
        },
        {
          "indexed": false,
          "internalType": "uint256[]",
          "name": "ids",
          "type": "uint256[]"
        }
      ],
      "name": "TransferBatch",
      "type": "event"
    },
    {
      "anonymous": false,
      "inputs": [
        {
          "indexed": true,
          "internalType": "address",
          "name": "operator",
          "type": "address"
        },
        {
          "indexed": true,
          "internalType": "address",
          "name": "from",
          "type": "address"
        },
        {
          "indexed": true,
          "internalType": "address",
          "name": "to",
          "type": "address"
        },
        {
          "indexed": false,
          "internalType": "uint256",
          "name": "id",
          "type": "uint256"
        }
      ],
      "name": "TransferSingle",
      "type": "event"
    },
    {
      "anonymous": false,
      "inputs": [
        {
          "indexed": false,
          "internalType": "string",
          "name": "value",
          "type": "string"
        },
        {
          "indexed": true,
          "internalType": "uint256",
          "name": "id",
          "type": "uint256"
        }
      ],
      "name": "URI",
      "type": "event"
    },
    {
      "inputs": [
        {
          "internalType": "address",
          "name": "account",
          "type": "address"
        }
      ],
      "name": "balanceOf",
      "outputs": [
        {
          "internalType": "uint256",
          "name": "",
          "type": "uint256"
        }
      ],
      "stateMutability": "view",
      "type": "function"
    },
    {
      "inputs": [
        {
          "internalType": "address[]",
          "name": "accounts",
          "type": "address[]"
        }
      ],
      "name": "balanceOfBatch",
      "outputs": [
        {
          "internalType": "uint256[]",
          "name": "",
          "type": "uint256[]"
        }
      ],
      "stateMutability": "view",
      "type": "function"
    },
    {
      "inputs": [
        {
          "internalType": "uint256",
          "name": "id",
          "type": "uint256"
        }
      ],
      "name": "burn",
      "outputs": [],
      "stateMutability": "nonpayable",
      "type": "function"
    },
    {
      "inputs": [
        {
          "internalType": "address",
          "name": "account",
          "type": "address"
        },
        {
          "internalType": "address",
          "name": "operator",
          "type": "address"
        }
      ],
      "name": "isApprovalForAll",
      "outputs": [
        {
          "internalType": "bool",
          "name": "",
          "type": "bool"
        }
      ],
      "stateMutability": "view",
      "type": "function"
    },
    {
      "inputs": [
        {
          "internalType": "address",
          "name": "account",
          "type": "address"
        },
        {
          "internalType": "uint256",
          "name": "id",
          "type": "uint256"
        }
      ],
      "name": "mint",
      "outputs": [],
      "stateMutability": "nonpayable",
      "type": "function"
    },
    {
      "inputs": [
        {
          "internalType": "address",
          "name": "from",
          "type": "address"
        },
        {
          "internalType": "address",
          "name": "to",
          "type": "address"
        },
        {
          "internalType": "uint256[]",
          "name": "ids",
          "type": "uint256[]"
        },
        {
          "internalType": "bytes",
          "name": "data",
          "type": "bytes"
        }
      ],
      "name": "safeBatchTransferFrom",
      "outputs": [],
      "stateMutability": "nonpayable",
      "type": "function"
    },
    {
      "inputs": [
        {
          "internalType": "address",
          "name": "from",
          "type": "address"
        },
        {
          "internalType": "address",
          "name": "to",
          "type": "address"
        },
        {
          "internalType": "uint256",
          "name": "id",
          "type": "uint256"
        },
        {
          "internalType": "bytes",
          "name": "data",
          "type": "bytes"
        }
      ],
      "name": "safeTransferFrom",
      "outputs": [],
      "stateMutability": "nonpayable",
      "type": "function"
    },
    {
      "inputs": [
        {
          "internalType": "address",
          "name": "operator",
          "type": "address"
        },
        {
          "internalType": "bool",
          "name": "approved",
          "type": "bool"
        }
      ],
      "name": "setApprovalForAll",
      "outputs": [],
      "stateMutability": "nonpayable",
      "type": "function"
    },
    {
      "inputs": [
        {
          "internalType": "uint256",
          "name": "",
          "type": "uint256"
        }
      ],
      "name": "uri",
      "outputs": [
        {
          "internalType": "string",
          "name": "",
          "type": "string"
        }
      ],
      "stateMutability": "view",
      "type": "function"
    }
  ],
  "bytecode": {
    "object": "0x60806040523480156200001157600080fd5b50604051620016463803806200164683398101604081905262000034916200006e565b6200003f8162000046565b50620002a5565b6004620000548282620001d9565b5050565b634e487b7160e01b600052604160045260246000fd5b600060208083850312156200008257600080fd5b82516001600160401b03808211156200009a57600080fd5b818501915085601f830112620000af57600080fd5b815181811115620000c457620000c462000058565b604051601f8201601f19908116603f01168101908382118183101715620000ef57620000ef62000058565b8160405282815288868487010111156200010857600080fd5b600093505b828410156200012c57848401860151818501870152928501926200010d565b828411156200013e5760008684830101525b98975050505050505050565b600181811c908216806200015f57607f821691505b6020821081036200018057634e487b7160e01b600052602260045260246000fd5b50919050565b601f821115620001d457600081815260208120601f850160051c81016020861015620001af5750805b601f850160051c820191505b81811015620001d057828155600101620001bb565b5050505b505050565b81516001600160401b03811115620001f557620001f562000058565b6200020d816200020684546200014a565b8462000186565b602080601f8311600181146200024557600084156200022c5750858301515b600019600386901b1c1916600185901b178555620001d0565b600085815260208120601f198616915b82811015620002765788860151825594840194600190910190840162000255565b5085821015620002955787850151600019600388901b60f8161c191681555b5050505050600190811b01905550565b61139180620002b56000396000f3fe608060405234801561001057600080fd5b50600436106100935760003560e01c8063458c738e11610066578063458c738e146100fc57806370a082311461011c578063a22cb4651461013d578063b88d4fde14610150578063ebd1d3591461016357600080fd5b80630e89341c1461009857806328cfbd46146100c157806340c10f19146100d657806342966c68146100e9575b600080fd5b6100ab6100a6366004610c43565b610186565b6040516100b89190610ca9565b60405180910390f35b6100d46100cf366004610dba565b61021a565b005b6100d46100e4366004610ea1565b61026d565b6100d46100f7366004610c43565b61028b565b61010f61010a366004610ecb565b610298565b6040516100b89190610fa9565b61012f61012a366004610fbc565b610344565b6040519081526020016100b8565b6100d461014b366004610fd7565b6103ca565b6100d461015e366004611013565b6103d5565b61017661017136600461106f565b610419565b60405190151581526020016100b8565b606060048054610195906110a2565b80601f01602080910402602001604051908101604052809291908181526020018280546101c1906110a2565b801561020e5780601f106101e35761010080835404028352916020019161020e565b820191906000526020600020905b8154815290600101906020018083116101f157829003601f168201915b50505050509050919050565b6001600160a01b03841633148061023657506102368433610419565b61025b5760405162461bcd60e51b8152600401610252906110dc565b60405180910390fd5b61026784848484610447565b50505050565b610287828260405180602001604052806000815250610594565b5050565b61029533826106ef565b50565b60606000825167ffffffffffffffff8111156102b6576102b6610cdf565b6040519080825280602002602001820160405280156102df578160200160208202803683370190505b50905060005b835181101561033d5761031084828151811061030357610303611129565b6020026020010151610344565b82828151811061032257610322611129565b602090810291909101015261033681611155565b90506102e5565b5092915050565b60006001600160a01b0382166103ae5760405162461bcd60e51b815260206004820152602960248201527f4552433732313a2061646472657373207a65726f206973206e6f7420612076616044820152683634b21037bbb732b960b91b6064820152608401610252565b506001600160a01b031660009081526001602052604090205490565b610287338383610852565b6001600160a01b0384163314806103f157506103f18433610419565b61040d5760405162461bcd60e51b8152600401610252906110dc565b61026784848484610931565b6001600160a01b03918216600090815260036020908152604080832093909416825291909152205460ff1690565b6001600160a01b03831661046d5760405162461bcd60e51b81526004016102529061116e565b3360005b835181101561052a57600084828151811061048e5761048e611129565b6020908102919091018101516000818152918290526040909120549091506001600160a01b038881169116146104d65760405162461bcd60e51b8152600401610252906110dc565b6001600160a01b0387811660009081526001602081905260408083208054600019019055928916825291812080549091906105129084906111b2565b909155506105239150829050611155565b9050610471565b50836001600160a01b0316856001600160a01b0316826001600160a01b03167f2e75a6cf483a33fd7e40b01fc5b561361f6e9b2d5a492f866bd66ca430a8c557866040516105789190610fa9565b60405180910390a461058d8186868686610a39565b5050505050565b6001600160a01b0383166105ea5760405162461bcd60e51b815260206004820181905260248201527f4552433732313a206d696e7420746f20746865207a65726f20616464726573736044820152606401610252565b6000828152602081905260409020546001600160a01b03161561064f5760405162461bcd60e51b815260206004820152601c60248201527f4552433732313a20746f6b656e20616c726561647920657869737473000000006044820152606401610252565b6001600160a01b0383166000908152600160208190526040822080543393906106799084906111b2565b909155505060008381526020818152604080832080546001600160a01b0319166001600160a01b038981169182179092559151878152919392908516917f9e6acd20e3f2497dbc8f7c785e2922c6550e2c7182ab2da2637b302b65b416fd910160405180910390a4610267816000868686610b92565b6001600160a01b0382166107505760405162461bcd60e51b815260206004820152602260248201527f4552433732313a206275726e2066726f6d20746865207a65726f206164647265604482015261737360f01b6064820152608401610252565b6000818152602081905260409020546001600160a01b03166107b45760405162461bcd60e51b815260206004820152601c60248201527f4552433732313a20746f6b656e20616c726561647920657869737473000000006044820152606401610252565b60008181526020819052604090205433906001600160a01b038481169116146107ef5760405162461bcd60e51b8152600401610252906110dc565b6001600160a01b03838116600081815260016020908152604080832080546000190190558683528282525186815291938516917f9e6acd20e3f2497dbc8f7c785e2922c6550e2c7182ab2da2637b302b65b416fd910160405180910390a4505050565b816001600160a01b0316836001600160a01b0316036108c45760405162461bcd60e51b815260206004820152602860248201527f4552433732313a2073657474696e6720617070726f76616c20737461747573206044820152673337b91039b2b63360c11b6064820152608401610252565b6001600160a01b03838116600081815260036020908152604080832094871680845294825291829020805460ff191686151590811790915591519182527f17307eab39ab6107e8899845ad3d59bd9653f200f220920489ca2b5937696c31910160405180910390a3505050565b6001600160a01b0383166109575760405162461bcd60e51b81526004016102529061116e565b60008281526020819052604090205433906001600160a01b038681169116146109925760405162461bcd60e51b8152600401610252906110dc565b6001600160a01b0385811660009081526001602081905260408083208054600019019055928716825291812080549091906109ce9084906111b2565b92505081905550836001600160a01b0316856001600160a01b0316826001600160a01b03167f9e6acd20e3f2497dbc8f7c785e2922c6550e2c7182ab2da2637b302b65b416fd86604051610a2491815260200190565b60405180910390a461058d8186868686610b92565b823b8015610b8a576040516325c0462360e11b81526001600160a01b03851690634b808c4690610a739089908990889088906004016111ca565b6020604051808303816000875af1925050508015610aae575060408051601f3d908101601f19168201909252610aab91810190611208565b60015b610b5857610aba611232565b806308c379a003610af35750610ace61124e565b80610ad95750610af5565b8060405162461bcd60e51b81526004016102529190610ca9565b505b60405162461bcd60e51b815260206004820152603260248201527f4552433732313a207472616e7366657220746f206e6f6e2d455243373231526560448201527131b2b4bb32b91034b6b83632b6b2b73a32b960711b6064820152608401610252565b6001600160e01b031981166325c0462360e11b14610b885760405162461bcd60e51b8152600401610252906112d8565b505b505050505050565b823b8015610b8a57604051630a85bd0160e11b81526001600160a01b0385169063150b7a0290610bcc90899089908890889060040161131e565b6020604051808303816000875af1925050508015610c07575060408051601f3d908101601f19168201909252610c0491810190611208565b60015b610c1357610aba611232565b6001600160e01b03198116630a85bd0160e11b14610b885760405162461bcd60e51b8152600401610252906112d8565b600060208284031215610c5557600080fd5b5035919050565b6000815180845260005b81811015610c8257602081850181015186830182015201610c66565b81811115610c94576000602083870101525b50601f01601f19169290920160200192915050565b602081526000610cbc6020830184610c5c565b9392505050565b80356001600160a01b0381168114610cda57600080fd5b919050565b634e487b7160e01b600052604160045260246000fd5b601f8201601f1916810167ffffffffffffffff81118282101715610d1b57610d1b610cdf565b6040525050565b600067ffffffffffffffff821115610d3c57610d3c610cdf565b5060051b60200190565b600082601f830112610d5757600080fd5b813567ffffffffffffffff811115610d7157610d71610cdf565b604051610d88601f8301601f191660200182610cf5565b818152846020838601011115610d9d57600080fd5b816020850160208301376000918101602001919091529392505050565b60008060008060808587031215610dd057600080fd5b610dd985610cc3565b93506020610de8818701610cc3565b9350604086013567ffffffffffffffff80821115610e0557600080fd5b818801915088601f830112610e1957600080fd5b8135610e2481610d22565b604051610e318282610cf5565b82815260059290921b840185019185810191508b831115610e5157600080fd5b938501935b82851015610e6f57843582529385019390850190610e56565b965050506060880135925080831115610e8757600080fd5b5050610e9587828801610d46565b91505092959194509250565b60008060408385031215610eb457600080fd5b610ebd83610cc3565b946020939093013593505050565b60006020808385031215610ede57600080fd5b823567ffffffffffffffff811115610ef557600080fd5b8301601f81018513610f0657600080fd5b8035610f1181610d22565b604051610f1e8282610cf5565b82815260059290921b8301840191848101915087831115610f3e57600080fd5b928401925b82841015610f6357610f5484610cc3565b82529284019290840190610f43565b979650505050505050565b600081518084526020808501945080840160005b83811015610f9e57815187529582019590820190600101610f82565b509495945050505050565b602081526000610cbc6020830184610f6e565b600060208284031215610fce57600080fd5b610cbc82610cc3565b60008060408385031215610fea57600080fd5b610ff383610cc3565b91506020830135801515811461100857600080fd5b809150509250929050565b6000806000806080858703121561102957600080fd5b61103285610cc3565b935061104060208601610cc3565b925060408501359150606085013567ffffffffffffffff81111561106357600080fd5b610e9587828801610d46565b6000806040838503121561108257600080fd5b61108b83610cc3565b915061109960208401610cc3565b90509250929050565b600181811c908216806110b657607f821691505b6020821081036110d657634e487b7160e01b600052602260045260246000fd5b50919050565b6020808252602d908201527f4552433732313a2063616c6c6572206973206e6f7420746f6b656e206f776e6560408201526c1c881bdc88185c1c1c9bdd9959609a1b606082015260800190565b634e487b7160e01b600052603260045260246000fd5b634e487b7160e01b600052601160045260246000fd5b6000600182016111675761116761113f565b5060010190565b60208082526024908201527f4552433732313a207472616e7366657220746f20746865207a65726f206164646040820152637265737360e01b606082015260800190565b600082198211156111c5576111c561113f565b500190565b6001600160a01b038581168252841660208201526080604082018190526000906111f690830185610f6e565b8281036060840152610f638185610c5c565b60006020828403121561121a57600080fd5b81516001600160e01b031981168114610cbc57600080fd5b600060033d111561124b5760046000803e5060005160e01c5b90565b600060443d101561125c5790565b6040516003193d81016004833e81513d67ffffffffffffffff816024840111818411171561128c57505050505090565b82850191508151818111156112a45750505050505090565b843d87010160208285010111156112be5750505050505090565b6112cd60208286010187610cf5565b509095945050505050565b60208082526026908201527f4552433732313a2045524337323152656365697665722072656a656374656420604082015265746f6b656e7360d01b606082015260800190565b6001600160a01b038581168252841660208201526040810183905260806060820181905260009061135190830184610c5c565b969550505050505056fea2646970667358221220c46eb2220ad605363c4bbf88081ac078a388c62ae2b0f00cf1a95c01e3c28a2e64736f6c634300080f0033",
    "linkReferences": {}
  },
  "methodIdentifiers": {
    "balanceOf(address)": "70a08231",
    "balanceOfBatch(address[])": "458c738e",
    "burn(uint256)": "42966c68",
    "isApprovalForAll(address,address)": "ebd1d359",
    "mint(address,uint256)": "40c10f19",
    "safeBatchTransferFrom(address,address,uint256[],bytes)": "28cfbd46",
    "safeTransferFrom(address,address,uint256,bytes)": "b88d4fde",
    "setApprovalForAll(address,bool)": "a22cb465",
    "uri(uint256)": "0e89341c"
  },
  "id": 6
}