{
  "abi": [
    {
      "inputs": [
        {
          "internalType": "address",
          "name": "",
          "type": "address"
        },
        {
          "internalType": "address",
          "name": "",
          "type": "address"
        },
        {
          "internalType": "uint256[]",
          "name": "",
          "type": "uint256[]"
        },
        {
          "internalType": "uint256[]",
          "name": "",
          "type": "uint256[]"
        },
        {
          "internalType": "bytes",
          "name": "",
          "type": "bytes"
        }
      ],
      "name": "onERC1155BatchReceived",
      "outputs": [
        {
          "internalType": "bytes4",
          "name": "",
          "type": "bytes4"
        }
      ],
      "stateMutability": "nonpayable",
      "type": "function"
    },
    {
      "inputs": [
        {
          "internalType": "address",
          "name": "",
          "type": "address"
        },
        {
          "internalType": "address",
          "name": "",
          "type": "address"
        },
        {
          "internalType": "uint256",
          "name": "",
          "type": "uint256"
        },
        {
          "internalType": "uint256",
          "name": "",
          "type": "uint256"
        },
        {
          "internalType": "bytes",
          "name": "",
          "type": "bytes"
        }
      ],
      "name": "onERC1155Received",
      "outputs": [
        {
          "internalType": "bytes4",
          "name": "",
          "type": "bytes4"
        }
      ],
      "stateMutability": "nonpayable",
      "type": "function"
    }
  ],
  "bytecode": {
    "object": "0x608060405234801561001057600080fd5b506102ad806100206000396000f3fe608060405234801561001057600080fd5b50600436106100365760003560e01c8063bc197c811461003b578063f23a6e611461007a575b600080fd5b61005d610049366004610144565b63aabbccdd60e01b98975050505050505050565b6040516001600160e01b0319909116815260200160405180910390f35b61005d6100883660046101ff565b63f23a6e6160e01b9695505050505050565b80356001600160a01b03811681146100b157600080fd5b919050565b60008083601f8401126100c857600080fd5b50813567ffffffffffffffff8111156100e057600080fd5b6020830191508360208260051b85010111156100fb57600080fd5b9250929050565b60008083601f84011261011457600080fd5b50813567ffffffffffffffff81111561012c57600080fd5b6020830191508360208285010111156100fb57600080fd5b60008060008060008060008060a0898b03121561016057600080fd5b6101698961009a565b975061017760208a0161009a565b9650604089013567ffffffffffffffff8082111561019457600080fd5b6101a08c838d016100b6565b909850965060608b01359150808211156101b957600080fd5b6101c58c838d016100b6565b909650945060808b01359150808211156101de57600080fd5b506101eb8b828c01610102565b999c989b5096995094979396929594505050565b60008060008060008060a0878903121561021857600080fd5b6102218761009a565b955061022f6020880161009a565b94506040870135935060608701359250608087013567ffffffffffffffff81111561025957600080fd5b61026589828a01610102565b979a969950949750929593949250505056fea264697066735822122081345fbc3fccfa26c4886e441c3bc1c9faf8c497ab3fb9a0d76c4594363a960a64736f6c634300080f0033",
    "linkReferences": {}
  },
  "methodIdentifiers": {
    "onERC1155BatchReceived(address,address,uint256[],uint256[],bytes)": "bc197c81",
    "onERC1155Received(address,address,uint256,uint256,bytes)": "f23a6e61"
  },
  "id": 8
}