{
  "abi": [
    {
      "inputs": [
        {
          "internalType": "address",
          "name": "",
          "type": "address"
        },
        {
          "internalType": "address",
          "name": "",
          "type": "address"
        },
        {
          "internalType": "uint256[]",
          "name": "",
          "type": "uint256[]"
        },
        {
          "internalType": "bytes",
          "name": "",
          "type": "bytes"
        }
      ],
      "name": "onERC721BatchReceived",
      "outputs": [
        {
          "internalType": "bytes4",
          "name": "",
          "type": "bytes4"
        }
      ],
      "stateMutability": "nonpayable",
      "type": "function"
    },
    {
      "inputs": [
        {
          "internalType": "address",
          "name": "",
          "type": "address"
        },
        {
          "internalType": "address",
          "name": "",
          "type": "address"
        },
        {
          "internalType": "uint256",
          "name": "",
          "type": "uint256"
        },
        {
          "internalType": "bytes",
          "name": "",
          "type": "bytes"
        }
      ],
      "name": "onERC721Received",
      "outputs": [
        {
          "internalType": "bytes4",
          "name": "",
          "type": "bytes4"
        }
      ],
      "stateMutability": "nonpayable",
      "type": "function"
    }
  ],
  "bytecode": {
    "object": "0x608060405234801561001057600080fd5b50610287806100206000396000f3fe608060405234801561001057600080fd5b50600436106100365760003560e01c8063150b7a021461003b5780634b808c461461006b575b600080fd5b61004e610049366004610120565b610079565b6040516001600160e01b0319909116815260200160405180910390f35b61004e61004936600461018f565b60405162461bcd60e51b815260206004820152601060248201526f52657665727420736f6d657468696e6760801b604482015260009060640160405180910390fd5b80356001600160a01b03811681146100d257600080fd5b919050565b60008083601f8401126100e957600080fd5b50813567ffffffffffffffff81111561010157600080fd5b60208301915083602082850101111561011957600080fd5b9250929050565b60008060008060006080868803121561013857600080fd5b610141866100bb565b945061014f602087016100bb565b935060408601359250606086013567ffffffffffffffff81111561017257600080fd5b61017e888289016100d7565b969995985093965092949392505050565b600080600080600080608087890312156101a857600080fd5b6101b1876100bb565b95506101bf602088016100bb565b9450604087013567ffffffffffffffff808211156101dc57600080fd5b818901915089601f8301126101f057600080fd5b8135818111156101ff57600080fd5b8a60208260051b850101111561021457600080fd5b60208301965080955050606089013591508082111561023257600080fd5b5061023f89828a016100d7565b979a969950949750929593949250505056fea2646970667358221220650fd9e96197012c42ee4b3b44cb32d98793a600875ae759f682e450c1d9d44164736f6c634300080f0033",
    "linkReferences": {}
  },
  "methodIdentifiers": {
    "onERC721BatchReceived(address,address,uint256[],bytes)": "4b808c46",
    "onERC721Received(address,address,uint256,bytes)": "150b7a02"
  },
  "id": 10
}