{
  "abi": [
    {
      "inputs": [
        {
          "internalType": "string",
          "name": "uri_",
          "type": "string"
        }
      ],
      "stateMutability": "nonpayable",
      "type": "constructor"
    },
    {
      "anonymous": false,
      "inputs": [
        {
          "indexed": true,
          "internalType": "address",
          "name": "account",
          "type": "address"
        },
        {
          "indexed": true,
          "internalType": "address",
          "name": "operator",
          "type": "address"
        },
        {
          "indexed": false,
          "internalType": "bool",
          "name": "approved",
          "type": "bool"
        }
      ],
      "name": "ApprovalForAll",
      "type": "event"
    },
    {
      "anonymous": false,
      "inputs": [
        {
          "indexed": true,
          "internalType": "address",
          "name": "operator",
          "type": "address"
        },
        {
          "indexed": true,
          "internalType": "address",
          "name": "from",
          "type": "address"
        },
        {
          "indexed": true,
          "internalType": "address",
          "name": "to",
          "type": "address"
        },
        {
          "indexed": false,
          "internalType": "uint256[]",
          "name": "ids",
          "type": "uint256[]"
        },
        {
          "indexed": false,
          "internalType": "uint256[]",
          "name": "values",
          "type": "uint256[]"
        }
      ],
      "name": "TransferBatch",
      "type": "event"
    },
    {
      "anonymous": false,
      "inputs": [
        {
          "indexed": true,
          "internalType": "address",
          "name": "operator",
          "type": "address"
        },
        {
          "indexed": true,
          "internalType": "address",
          "name": "from",
          "type": "address"
        },
        {
          "indexed": true,
          "internalType": "address",
          "name": "to",
          "type": "address"
        },
        {
          "indexed": false,
          "internalType": "uint256",
          "name": "id",
          "type": "uint256"
        },
        {
          "indexed": false,
          "internalType": "uint256",
          "name": "value",
          "type": "uint256"
        }
      ],
      "name": "TransferSingle",
      "type": "event"
    },
    {
      "anonymous": false,
      "inputs": [
        {
          "indexed": false,
          "internalType": "string",
          "name": "value",
          "type": "string"
        },
        {
          "indexed": true,
          "internalType": "uint256",
          "name": "id",
          "type": "uint256"
        }
      ],
      "name": "URI",
      "type": "event"
    },
    {
      "inputs": [
        {
          "internalType": "address",
          "name": "account",
          "type": "address"
        },
        {
          "internalType": "uint256",
          "name": "id",
          "type": "uint256"
        }
      ],
      "name": "balanceOf",
      "outputs": [
        {
          "internalType": "uint256",
          "name": "",
          "type": "uint256"
        }
      ],
      "stateMutability": "view",
      "type": "function"
    },
    {
      "inputs": [
        {
          "internalType": "address[]",
          "name": "accounts",
          "type": "address[]"
        },
        {
          "internalType": "uint256[]",
          "name": "ids",
          "type": "uint256[]"
        }
      ],
      "name": "balanceOfBatch",
      "outputs": [
        {
          "internalType": "uint256[]",
          "name": "",
          "type": "uint256[]"
        }
      ],
      "stateMutability": "view",
      "type": "function"
    },
    {
      "inputs": [
        {
          "internalType": "uint256",
          "name": "id",
          "type": "uint256"
        },
        {
          "internalType": "uint256",
          "name": "amount",
          "type": "uint256"
        }
      ],
      "name": "burn",
      "outputs": [],
      "stateMutability": "nonpayable",
      "type": "function"
    },
    {
      "inputs": [
        {
          "internalType": "address",
          "name": "account",
          "type": "address"
        },
        {
          "internalType": "address",
          "name": "operator",
          "type": "address"
        }
      ],
      "name": "isApprovalForAll",
      "outputs": [
        {
          "internalType": "bool",
          "name": "",
          "type": "bool"
        }
      ],
      "stateMutability": "view",
      "type": "function"
    },
    {
      "inputs": [
        {
          "internalType": "address",
          "name": "account",
          "type": "address"
        },
        {
          "internalType": "uint256",
          "name": "id",
          "type": "uint256"
        },
        {
          "internalType": "uint256",
          "name": "amount",
          "type": "uint256"
        }
      ],
      "name": "mint",
      "outputs": [],
      "stateMutability": "nonpayable",
      "type": "function"
    },
    {
      "inputs": [
        {
          "internalType": "address",
          "name": "from",
          "type": "address"
        },
        {
          "internalType": "address",
          "name": "to",
          "type": "address"
        },
        {
          "internalType": "uint256[]",
          "name": "ids",
          "type": "uint256[]"
        },
        {
          "internalType": "uint256[]",
          "name": "amounts",
          "type": "uint256[]"
        },
        {
          "internalType": "bytes",
          "name": "data",
          "type": "bytes"
        }
      ],
      "name": "safeBatchTransferFrom",
      "outputs": [],
      "stateMutability": "nonpayable",
      "type": "function"
    },
    {
      "inputs": [
        {
          "internalType": "address",
          "name": "from",
          "type": "address"
        },
        {
          "internalType": "address",
          "name": "to",
          "type": "address"
        },
        {
          "internalType": "uint256",
          "name": "id",
          "type": "uint256"
        },
        {
          "internalType": "uint256",
          "name": "amount",
          "type": "uint256"
        },
        {
          "internalType": "bytes",
          "name": "data",
          "type": "bytes"
        }
      ],
      "name": "safeTransferFrom",
      "outputs": [],
      "stateMutability": "nonpayable",
      "type": "function"
    },
    {
      "inputs": [
        {
          "internalType": "address",
          "name": "operator",
          "type": "address"
        },
        {
          "internalType": "bool",
          "name": "approved",
          "type": "bool"
        }
      ],
      "name": "setApprovalForAll",
      "outputs": [],
      "stateMutability": "nonpayable",
      "type": "function"
    },
    {
      "inputs": [
        {
          "internalType": "uint256",
          "name": "",
          "type": "uint256"
        }
      ],
      "name": "uri",
      "outputs": [
        {
          "internalType": "string",
          "name": "",
          "type": "string"
        }
      ],
      "stateMutability": "view",
      "type": "function"
    }
  ],
  "bytecode": {
    "object": "0x60806040523480156200001157600080fd5b506040516200182e3803806200182e83398101604081905262000034916200006e565b6200003f8162000046565b50620002a5565b6002620000548282620001d9565b5050565b634e487b7160e01b600052604160045260246000fd5b600060208083850312156200008257600080fd5b82516001600160401b03808211156200009a57600080fd5b818501915085601f830112620000af57600080fd5b815181811115620000c457620000c462000058565b604051601f8201601f19908116603f01168101908382118183101715620000ef57620000ef62000058565b8160405282815288868487010111156200010857600080fd5b600093505b828410156200012c57848401860151818501870152928501926200010d565b828411156200013e5760008684830101525b98975050505050505050565b600181811c908216806200015f57607f821691505b6020821081036200018057634e487b7160e01b600052602260045260246000fd5b50919050565b601f821115620001d457600081815260208120601f850160051c81016020861015620001af5750805b601f850160051c820191505b81811015620001d057828155600101620001bb565b5050505b505050565b81516001600160401b03811115620001f557620001f562000058565b6200020d816200020684546200014a565b8462000186565b602080601f8311600181146200024557600084156200022c5750858301515b600019600386901b1c1916600185901b178555620001d0565b600085815260208120601f198616915b82811015620002765788860151825594840194600190910190840162000255565b5085821015620002955787850151600019600388901b60f8161c191681555b5050505050600190811b01905550565b61157980620002b56000396000f3fe608060405234801561001057600080fd5b50600436106100925760003560e01c80634e1273f4116100665780634e1273f414610105578063a22cb46514610125578063b390c0ab14610138578063ebd1d3591461014b578063f242432a1461016e57600080fd5b8062fdd58e146100975780630e89341c146100bd578063156e29f6146100dd5780632eb2c2d6146100f2575b600080fd5b6100aa6100a5366004610d04565b610181565b6040519081526020015b60405180910390f35b6100d06100cb366004610d2e565b610217565b6040516100b49190610d94565b6100f06100eb366004610dae565b6102ab565b005b6100f0610100366004610f2d565b6102cb565b610118610113366004610fd7565b610317565b6040516100b491906110dd565b6100f06101333660046110f0565b610441565b6100f061014636600461112c565b610450565b61015e61015936600461114e565b61045b565b60405190151581526020016100b4565b6100f061017c366004611181565b610489565b60006001600160a01b0383166101f15760405162461bcd60e51b815260206004820152602a60248201527f455243313135353a2061646472657373207a65726f206973206e6f742061207660448201526930b634b21037bbb732b960b11b60648201526084015b60405180910390fd5b506000908152602081815260408083206001600160a01b03949094168352929052205490565b606060028054610226906111e6565b80601f0160208091040260200160405190810160405280929190818152602001828054610252906111e6565b801561029f5780601f106102745761010080835404028352916020019161029f565b820191906000526020600020905b81548152906001019060200180831161028257829003601f168201915b50505050509050919050565b6102c6838383604051806020016040528060008152506104ce565b505050565b6001600160a01b0385163314806102e757506102e7853361045b565b6103035760405162461bcd60e51b81526004016101e890611220565b61031085858585856105c0565b5050505050565b6060815183511461037c5760405162461bcd60e51b815260206004820152602960248201527f455243313135353a206163636f756e747320616e6420696473206c656e677468604482015268040dad2e6dac2e8c6d60bb1b60648201526084016101e8565b6000835167ffffffffffffffff81111561039857610398610de1565b6040519080825280602002602001820160405280156103c1578160200160208202803683370190505b50905060005b84518110156104395761040c8582815181106103e5576103e561126e565b60200260200101518583815181106103ff576103ff61126e565b6020026020010151610181565b82828151811061041e5761041e61126e565b60209081029190910101526104328161129a565b90506103c7565b509392505050565b61044c33838361079d565b5050565b61044c33838361087d565b6001600160a01b03918216600090815260016020908152604080832093909416825291909152205460ff1690565b6001600160a01b0385163314806104a557506104a5853361045b565b6104c15760405162461bcd60e51b81526004016101e890611220565b61031085858585856109c9565b6001600160a01b03841661052e5760405162461bcd60e51b815260206004820152602160248201527f455243313135353a206d696e7420746f20746865207a65726f206164647265736044820152607360f81b60648201526084016101e8565b6000838152602081815260408083206001600160a01b03881684529091528120805433928592916105609084906112b3565b909155505060408051858152602081018590526001600160a01b0380881692600092918516917fc3d58168c5ae7397731d063d5bbf3d657854427343f4c083240f7aacaa2d0f62910160405180910390a461031081600087878787610ad8565b81518351146106225760405162461bcd60e51b815260206004820152602860248201527f455243313135353a2069647320616e6420616d6f756e7473206c656e677468206044820152670dad2e6dac2e8c6d60c31b60648201526084016101e8565b6001600160a01b0384166106485760405162461bcd60e51b81526004016101e8906112cb565b3360005b845181101561072f5760008582815181106106695761066961126e565b6020026020010151905060008583815181106106875761068761126e565b602090810291909101810151600084815280835260408082206001600160a01b038e1683529093529190912054909150818110156106d75760405162461bcd60e51b81526004016101e890611310565b6000838152602081815260408083206001600160a01b038e8116855292528083208585039055908b168252812080548492906107149084906112b3565b92505081905550505050806107289061129a565b905061064c565b50846001600160a01b0316866001600160a01b0316826001600160a01b03167f4a39dc06d4c0dbc64b70af90fd698a233a518aa5d07e595d983b8c0526c8f7fb878760405161077f92919061135a565b60405180910390a4610795818787878787610c35565b505050505050565b816001600160a01b0316836001600160a01b0316036108105760405162461bcd60e51b815260206004820152602960248201527f455243313135353a2073657474696e6720617070726f76616c20737461747573604482015268103337b91039b2b63360b91b60648201526084016101e8565b6001600160a01b03838116600081815260016020908152604080832094871680845294825291829020805460ff191686151590811790915591519182527f17307eab39ab6107e8899845ad3d59bd9653f200f220920489ca2b5937696c31910160405180910390a3505050565b6001600160a01b0383166108df5760405162461bcd60e51b815260206004820152602360248201527f455243313135353a206275726e2066726f6d20746865207a65726f206164647260448201526265737360e81b60648201526084016101e8565b6000828152602081815260408083206001600160a01b038716845290915290205433908281101561095e5760405162461bcd60e51b8152602060048201526024808201527f455243313135353a206275726e20616d6f756e7420657863656564732062616c604482015263616e636560e01b60648201526084016101e8565b6000848152602081815260408083206001600160a01b03898116808652918452828520888703905582518981529384018890529092908616917fc3d58168c5ae7397731d063d5bbf3d657854427343f4c083240f7aacaa2d0f62910160405180910390a45050505050565b6001600160a01b0384166109ef5760405162461bcd60e51b81526004016101e8906112cb565b6000838152602081815260408083206001600160a01b0389168452909152902054339083811015610a325760405162461bcd60e51b81526004016101e890611310565b6000858152602081815260408083206001600160a01b038b8116855292528083208785039055908816825281208054869290610a6f9084906112b3565b909155505060408051868152602081018690526001600160a01b03808916928a821692918616917fc3d58168c5ae7397731d063d5bbf3d657854427343f4c083240f7aacaa2d0f62910160405180910390a4610acf828888888888610ad8565b50505050505050565b833b8015610acf5760405163f23a6e6160e01b81526001600160a01b0386169063f23a6e6190610b14908a908a90899089908990600401611388565b6020604051808303816000875af1925050508015610b4f575060408051601f3d908101601f19168201909252610b4c918101906113cd565b60015b610bfb57610b5b6113f7565b806308c379a003610b945750610b6f611413565b80610b7a5750610b96565b8060405162461bcd60e51b81526004016101e89190610d94565b505b60405162461bcd60e51b815260206004820152603460248201527f455243313135353a207472616e7366657220746f206e6f6e2d455243313135356044820152732932b1b2b4bb32b91034b6b83632b6b2b73a32b960611b60648201526084016101e8565b6001600160e01b0319811663f23a6e6160e01b14610c2b5760405162461bcd60e51b81526004016101e89061149d565b5050505050505050565b833b8015610acf5760405163bc197c8160e01b81526001600160a01b0386169063bc197c8190610c71908a908a908990899089906004016114e5565b6020604051808303816000875af1925050508015610cac575060408051601f3d908101601f19168201909252610ca9918101906113cd565b60015b610cb857610b5b6113f7565b6001600160e01b0319811663bc197c8160e01b14610c2b5760405162461bcd60e51b81526004016101e89061149d565b80356001600160a01b0381168114610cff57600080fd5b919050565b60008060408385031215610d1757600080fd5b610d2083610ce8565b946020939093013593505050565b600060208284031215610d4057600080fd5b5035919050565b6000815180845260005b81811015610d6d57602081850181015186830182015201610d51565b81811115610d7f576000602083870101525b50601f01601f19169290920160200192915050565b602081526000610da76020830184610d47565b9392505050565b600080600060608486031215610dc357600080fd5b610dcc84610ce8565b95602085013595506040909401359392505050565b634e487b7160e01b600052604160045260246000fd5b601f8201601f1916810167ffffffffffffffff81118282101715610e1d57610e1d610de1565b6040525050565b600067ffffffffffffffff821115610e3e57610e3e610de1565b5060051b60200190565b600082601f830112610e5957600080fd5b81356020610e6682610e24565b604051610e738282610df7565b83815260059390931b8501820192828101915086841115610e9357600080fd5b8286015b84811015610eae5780358352918301918301610e97565b509695505050505050565b600082601f830112610eca57600080fd5b813567ffffffffffffffff811115610ee457610ee4610de1565b604051610efb601f8301601f191660200182610df7565b818152846020838601011115610f1057600080fd5b816020850160208301376000918101602001919091529392505050565b600080600080600060a08688031215610f4557600080fd5b610f4e86610ce8565b9450610f5c60208701610ce8565b9350604086013567ffffffffffffffff80821115610f7957600080fd5b610f8589838a01610e48565b94506060880135915080821115610f9b57600080fd5b610fa789838a01610e48565b93506080880135915080821115610fbd57600080fd5b50610fca88828901610eb9565b9150509295509295909350565b60008060408385031215610fea57600080fd5b823567ffffffffffffffff8082111561100257600080fd5b818501915085601f83011261101657600080fd5b8135602061102382610e24565b6040516110308282610df7565b83815260059390931b850182019282810191508984111561105057600080fd5b948201945b838610156110755761106686610ce8565b82529482019490820190611055565b9650508601359250508082111561108b57600080fd5b5061109885828601610e48565b9150509250929050565b600081518084526020808501945080840160005b838110156110d2578151875295820195908201906001016110b6565b509495945050505050565b602081526000610da760208301846110a2565b6000806040838503121561110357600080fd5b61110c83610ce8565b91506020830135801515811461112157600080fd5b809150509250929050565b6000806040838503121561113f57600080fd5b50508035926020909101359150565b6000806040838503121561116157600080fd5b61116a83610ce8565b915061117860208401610ce8565b90509250929050565b600080600080600060a0868803121561119957600080fd5b6111a286610ce8565b94506111b060208701610ce8565b93506040860135925060608601359150608086013567ffffffffffffffff8111156111da57600080fd5b610fca88828901610eb9565b600181811c908216806111fa57607f821691505b60208210810361121a57634e487b7160e01b600052602260045260246000fd5b50919050565b6020808252602e908201527f455243313135353a2063616c6c6572206973206e6f7420746f6b656e206f776e60408201526d195c881bdc88185c1c1c9bdd995960921b606082015260800190565b634e487b7160e01b600052603260045260246000fd5b634e487b7160e01b600052601160045260246000fd5b6000600182016112ac576112ac611284565b5060010190565b600082198211156112c6576112c6611284565b500190565b60208082526025908201527f455243313135353a207472616e7366657220746f20746865207a65726f206164604082015264647265737360d81b606082015260800190565b6020808252602a908201527f455243313135353a20696e73756666696369656e742062616c616e636520666f60408201526939103a3930b739b332b960b11b606082015260800190565b60408152600061136d60408301856110a2565b828103602084015261137f81856110a2565b95945050505050565b6001600160a01b03868116825285166020820152604081018490526060810183905260a0608082018190526000906113c290830184610d47565b979650505050505050565b6000602082840312156113df57600080fd5b81516001600160e01b031981168114610da757600080fd5b600060033d11156114105760046000803e5060005160e01c5b90565b600060443d10156114215790565b6040516003193d81016004833e81513d67ffffffffffffffff816024840111818411171561145157505050505090565b82850191508151818111156114695750505050505090565b843d87010160208285010111156114835750505050505090565b61149260208286010187610df7565b509095945050505050565b60208082526028908201527f455243313135353a204552433131353552656365697665722072656a656374656040820152676420746f6b656e7360c01b606082015260800190565b6001600160a01b0386811682528516602082015260a060408201819052600090611511908301866110a2565b828103606084015261152381866110a2565b905082810360808401526115378185610d47565b9897505050505050505056fea2646970667358221220568e91b1b172d12d1df9c60fbc343f4db6193820f97bc88c30526b81e09bc09564736f6c634300080f0033",
    "linkReferences": {}
  },
  "methodIdentifiers": {
    "balanceOf(address,uint256)": "00fdd58e",
    "balanceOfBatch(address[],uint256[])": "4e1273f4",
    "burn(uint256,uint256)": "b390c0ab",
    "isApprovalForAll(address,address)": "ebd1d359",
    "mint(address,uint256,uint256)": "156e29f6",
    "safeBatchTransferFrom(address,address,uint256[],uint256[],bytes)": "2eb2c2d6",
    "safeTransferFrom(address,address,uint256,uint256,bytes)": "f242432a",
    "setApprovalForAll(address,bool)": "a22cb465",
    "uri(uint256)": "0e89341c"
  },
  "id": 6
}